{
  "contractName": "AuctionBox",
  "abi": [
    {
      "inputs": [],
      "payable": false,
      "stateMutability": "nonpayable",
      "type": "constructor"
    },
    {
      "constant": true,
      "inputs": [
        {
          "internalType": "uint256",
          "name": "",
          "type": "uint256"
        }
      ],
      "name": "auctions",
      "outputs": [
        {
          "internalType": "contract EnglishAuction",
          "name": "",
          "type": "address"
        }
      ],
      "payable": false,
      "stateMutability": "view",
      "type": "function"
    },
    {
      "constant": false,
      "inputs": [
        {
          "internalType": "contract Diamond",
          "name": "_token",
          "type": "address"
        },
        {
          "internalType": "address payable",
          "name": "_beneficiary",
          "type": "address"
        },
        {
          "internalType": "uint256",
          "name": "_biddingTime",
          "type": "uint256"
        },
        {
          "internalType": "uint256",
          "name": "_startPrice",
          "type": "uint256"
        },
        {
          "internalType": "uint256",
          "name": "_token_id",
          "type": "uint256"
        },
        {
          "internalType": "uint256",
          "name": "_step_min",
          "type": "uint256"
        },
        {
          "internalType": "uint256",
          "name": "_step_max",
          "type": "uint256"
        }
      ],
      "name": "createAuction",
      "outputs": [],
      "payable": false,
      "stateMutability": "nonpayable",
      "type": "function"
    },
    {
      "constant": true,
      "inputs": [],
      "name": "returnAllAuctions",
      "outputs": [
        {
          "internalType": "contract EnglishAuction[]",
          "name": "",
          "type": "address[]"
        }
      ],
      "payable": false,
      "stateMutability": "view",
      "type": "function"
    }
  ],
  "bytecode": "0x608060405234801561001057600080fd5b5033600160006101000a81548173ffffffffffffffffffffffffffffffffffffffff021916908373ffffffffffffffffffffffffffffffffffffffff1602179055506124bd806100616000396000f3fe608060405234801561001057600080fd5b50600436106100415760003560e01c8063571a26a014610046578063c15f513e146100b4578063d1f28df61461014a575b600080fd5b6100726004803603602081101561005c57600080fd5b81019080803590602001909291905050506101a9565b604051808273ffffffffffffffffffffffffffffffffffffffff1673ffffffffffffffffffffffffffffffffffffffff16815260200191505060405180910390f35b610148600480360360e08110156100ca57600080fd5b81019080803573ffffffffffffffffffffffffffffffffffffffff169060200190929190803573ffffffffffffffffffffffffffffffffffffffff16906020019092919080359060200190929190803590602001909291908035906020019092919080359060200190929190803590602001909291905050506101e5565b005b6101526103a3565b6040518080602001828103825283818151815260200191508051906020019060200280838360005b8381101561019557808201518184015260208101905061017a565b505050509050019250505060405180910390f35b600281815481106101b657fe5b906000526020600020016000915054906101000a900473ffffffffffffffffffffffffffffffffffffffff1681565b600160009054906101000a900473ffffffffffffffffffffffffffffffffffffffff1673ffffffffffffffffffffffffffffffffffffffff163373ffffffffffffffffffffffffffffffffffffffff161461023f57600080fd5b6000873387898888888860405161025590610431565b808973ffffffffffffffffffffffffffffffffffffffff1673ffffffffffffffffffffffffffffffffffffffff1681526020018873ffffffffffffffffffffffffffffffffffffffff1673ffffffffffffffffffffffffffffffffffffffff1681526020018781526020018673ffffffffffffffffffffffffffffffffffffffff1673ffffffffffffffffffffffffffffffffffffffff16815260200185815260200184815260200183815260200182815260200198505050505050505050604051809103906000f080158015610330573d6000803e3d6000fd5b50905060028190806001815401808255809150509060018203906000526020600020016000909192909190916101000a81548173ffffffffffffffffffffffffffffffffffffffff021916908373ffffffffffffffffffffffffffffffffffffffff160217905550505050505050505050565b6060600280548060200260200160405190810160405280929190818152602001828054801561042757602002820191906000526020600020905b8160009054906101000a900473ffffffffffffffffffffffffffffffffffffffff1673ffffffffffffffffffffffffffffffffffffffff16815260200190600101908083116103dd575b5050505050905090565b61204a8061043f8339019056fe608060405234801561001057600080fd5b5060405161204a38038061204a833981810160405261010081101561003457600080fd5b81019080805190602001909291908051906020019092919080519060200190929190805190602001909291908051906020019092919080519060200190929190805190602001909291908051906020019092919050505087600260016101000a81548173ffffffffffffffffffffffffffffffffffffffff021916908373ffffffffffffffffffffffffffffffffffffffff160217905550846000806101000a81548173ffffffffffffffffffffffffffffffffffffffff021916908373ffffffffffffffffffffffffffffffffffffffff1602179055508542016001819055508360068190555086600360006101000a81548173ffffffffffffffffffffffffffffffffffffffff021916908373ffffffffffffffffffffffffffffffffffffffff16021790555082600c8190555081600781905550806008819055506000600260006101000a81548160ff0219169083600281111561019157fe5b02179055505050505050505050611e9d806101ad6000396000f3fe6080604052600436106100fe5760003560e01c8063617687e31161009557806391f901571161006457806391f901571461039b578063d3a4a53e146103f2578063d566813114610424578063d57bde791461044f578063f1a9af891461047a576100fe565b8063617687e3146102945780637ad00cd0146102f95780637fb450991461033757806385b01da014610370576100fe565b80633ccfd60b116100d15780633ccfd60b146101aa57806348cb6b77146101d95780634b449cba1461020457806350a43f611461022f576100fe565b80631998aeef146101035780632452cd301461010d5780632a24f46c1461013c57806338af3eed14610153575b600080fd5b61010b6104a5565b005b34801561011957600080fd5b50610122610bd9565b604051808215151515815260200191505060405180910390f35b34801561014857600080fd5b50610151610bec565b005b34801561015f57600080fd5b506101686110f2565b604051808273ffffffffffffffffffffffffffffffffffffffff1673ffffffffffffffffffffffffffffffffffffffff16815260200191505060405180910390f35b3480156101b657600080fd5b506101bf611117565b604051808215151515815260200191505060405180910390f35b3480156101e557600080fd5b506101ee6114c4565b6040518082815260200191505060405180910390f35b34801561021057600080fd5b506102196114ca565b6040518082815260200191505060405180910390f35b34801561023b57600080fd5b5061027e6004803603602081101561025257600080fd5b81019080803573ffffffffffffffffffffffffffffffffffffffff1690602001909291905050506114d0565b6040518082815260200191505060405180910390f35b3480156102a057600080fd5b506102e3600480360360208110156102b757600080fd5b81019080803573ffffffffffffffffffffffffffffffffffffffff169060200190929190505050611519565b6040518082815260200191505060405180910390f35b34801561030557600080fd5b506103356004803603602081101561031c57600080fd5b81019080803560ff169060200190929190505050611531565b005b34801561034357600080fd5b5061034c611c39565b6040518082600281111561035c57fe5b60ff16815260200191505060405180910390f35b34801561037c57600080fd5b50610385611c4c565b6040518082815260200191505060405180910390f35b3480156103a757600080fd5b506103b0611c52565b604051808273ffffffffffffffffffffffffffffffffffffffff1673ffffffffffffffffffffffffffffffffffffffff16815260200191505060405180910390f35b3480156103fe57600080fd5b50610407611c78565b604051808381526020018281526020019250505060405180910390f35b34801561043057600080fd5b50610439611d06565b6040518082815260200191505060405180910390f35b34801561045b57600080fd5b50610464611d0c565b6040518082815260200191505060405180910390f35b34801561048657600080fd5b5061048f611d12565b6040518082815260200191505060405180910390f35b600260019054906101000a900473ffffffffffffffffffffffffffffffffffffffff1673ffffffffffffffffffffffffffffffffffffffff16639d36788e600c546040518263ffffffff1660e01b81526004018082815260200191505060206040518083038186803b15801561051a57600080fd5b505afa15801561052e573d6000803e3d6000fd5b505050506040513d602081101561054457600080fd5b81019080805190602001909291905050506105c7576040517f08c379a00000000000000000000000000000000000000000000000000000000081526004018080602001828103825260138152602001807f546f6b656e20646f65736e27742065786973740000000000000000000000000081525060200191505060405180910390fd5b600160028111156105d457fe5b600260009054906101000a900460ff1660028111156105ef57fe5b14610645576040517f08c379a000000000000000000000000000000000000000000000000000000000815260040180806020018281038252602b815260200180611dea602b913960400191505060405180910390fd5b6001544211156106bd576040517f08c379a00000000000000000000000000000000000000000000000000000000081526004018080602001828103825260168152602001807f41756374696f6e20616c726561647920656e6465642e0000000000000000000081525060200191505060405180910390fd5b600460009054906101000a900473ffffffffffffffffffffffffffffffffffffffff1673ffffffffffffffffffffffffffffffffffffffff163373ffffffffffffffffffffffffffffffffffffffff161415610764576040517f08c379a0000000000000000000000000000000000000000000000000000000008152600401808060200182810382526021815260200180611d4b6021913960400191505060405180910390fd5b600654600a60003373ffffffffffffffffffffffffffffffffffffffff1673ffffffffffffffffffffffffffffffffffffffff16815260200190815260200160002054340110156107b457600080fd5b6000806107bf611c78565b91509150600060055414156108b95781600a60003373ffffffffffffffffffffffffffffffffffffffff1673ffffffffffffffffffffffffffffffffffffffff16815260200190815260200160002054340111801561085f575080600a60003373ffffffffffffffffffffffffffffffffffffffff1673ffffffffffffffffffffffffffffffffffffffff16815260200190815260200160002054340111155b6108b4576040517f08c379a0000000000000000000000000000000000000000000000000000000008152600401808060200182810382526028815260200180611dc26028913960400191505060405180910390fd5b6109a0565b81600a60003373ffffffffffffffffffffffffffffffffffffffff1673ffffffffffffffffffffffffffffffffffffffff16815260200190815260200160002054340111801561094a575080600a60003373ffffffffffffffffffffffffffffffffffffffff1673ffffffffffffffffffffffffffffffffffffffff16815260200190815260200160002054340111155b61099f576040517f08c379a0000000000000000000000000000000000000000000000000000000008152600401808060200182810382526021815260200180611e486021913960400191505060405180910390fd5b5b600060055414610a7257600a6000600460009054906101000a900473ffffffffffffffffffffffffffffffffffffffff1673ffffffffffffffffffffffffffffffffffffffff1673ffffffffffffffffffffffffffffffffffffffff1681526020019081526020016000205460096000600460009054906101000a900473ffffffffffffffffffffffffffffffffffffffff1673ffffffffffffffffffffffffffffffffffffffff1673ffffffffffffffffffffffffffffffffffffffff168152602001908152602001600020819055505b33600460006101000a81548173ffffffffffffffffffffffffffffffffffffffff021916908373ffffffffffffffffffffffffffffffffffffffff16021790555034600a6000600460009054906101000a900473ffffffffffffffffffffffffffffffffffffffff1673ffffffffffffffffffffffffffffffffffffffff1673ffffffffffffffffffffffffffffffffffffffff168152602001908152602001600020540160058190555034600a60003373ffffffffffffffffffffffffffffffffffffffff1673ffffffffffffffffffffffffffffffffffffffff168152602001908152602001600020600082825401925050819055507ff4757a49b326036464bec6fe419a4ae38c8a02ce3e68bf0809674f6aab8ad3003334604051808373ffffffffffffffffffffffffffffffffffffffff1673ffffffffffffffffffffffffffffffffffffffff1681526020018281526020019250505060405180910390a15050565b600b60009054906101000a900460ff1681565b600360009054906101000a900473ffffffffffffffffffffffffffffffffffffffff1673ffffffffffffffffffffffffffffffffffffffff163373ffffffffffffffffffffffffffffffffffffffff1614610c4657600080fd5b600260019054906101000a900473ffffffffffffffffffffffffffffffffffffffff1673ffffffffffffffffffffffffffffffffffffffff16639d36788e600c546040518263ffffffff1660e01b81526004018082815260200191505060206040518083038186803b158015610cbb57600080fd5b505afa158015610ccf573d6000803e3d6000fd5b505050506040513d6020811015610ce557600080fd5b8101908080519060200190929190505050610d68576040517f08c379a00000000000000000000000000000000000000000000000000000000081526004018080602001828103825260138152602001807f546f6b656e20646f65736e27742065786973740000000000000000000000000081525060200191505060405180910390fd5b600280811115610d7457fe5b600260009054906101000a900460ff166002811115610d8f57fe5b14610de5576040517f08c379a0000000000000000000000000000000000000000000000000000000008152600401808060200182810382526033815260200180611e156033913960400191505060405180910390fd5b600154421015610e5d576040517f08c379a00000000000000000000000000000000000000000000000000000000081526004018080602001828103825260168152602001807f41756374696f6e206e6f742079657420656e6465642e0000000000000000000081525060200191505060405180910390fd5b600b60009054906101000a900460ff1615610ec3576040517f08c379a0000000000000000000000000000000000000000000000000000000008152600401808060200182810382526023815260200180611d9f6023913960400191505060405180910390fd5b6001600b60006101000a81548160ff0219169083151502179055507fdaec4582d5d9595688c8c98545fdd1c696d41c6aeaeb636737e84ed2f5c00eda600460009054906101000a900473ffffffffffffffffffffffffffffffffffffffff16600554604051808373ffffffffffffffffffffffffffffffffffffffff1673ffffffffffffffffffffffffffffffffffffffff1681526020018281526020019250505060405180910390a16000809054906101000a900473ffffffffffffffffffffffffffffffffffffffff1673ffffffffffffffffffffffffffffffffffffffff166108fc6005549081150290604051600060405180830381858888f19350505050158015610fd6573d6000803e3d6000fd5b50600260019054906101000a900473ffffffffffffffffffffffffffffffffffffffff1673ffffffffffffffffffffffffffffffffffffffff166323b872dd30600460009054906101000a900473ffffffffffffffffffffffffffffffffffffffff16600c546040518463ffffffff1660e01b8152600401808473ffffffffffffffffffffffffffffffffffffffff1673ffffffffffffffffffffffffffffffffffffffff1681526020018373ffffffffffffffffffffffffffffffffffffffff1673ffffffffffffffffffffffffffffffffffffffff1681526020018281526020019350505050600060405180830381600087803b1580156110d857600080fd5b505af11580156110ec573d6000803e3d6000fd5b50505050565b6000809054906101000a900473ffffffffffffffffffffffffffffffffffffffff1681565b6000600260019054906101000a900473ffffffffffffffffffffffffffffffffffffffff1673ffffffffffffffffffffffffffffffffffffffff16639d36788e600c546040518263ffffffff1660e01b81526004018082815260200191505060206040518083038186803b15801561118e57600080fd5b505afa1580156111a2573d6000803e3d6000fd5b505050506040513d60208110156111b857600080fd5b810190808051906020019092919050505061123b576040517f08c379a00000000000000000000000000000000000000000000000000000000081526004018080602001828103825260138152602001807f546f6b656e20646f65736e27742065786973740000000000000000000000000081525060200191505060405180910390fd5b600460009054906101000a900473ffffffffffffffffffffffffffffffffffffffff1673ffffffffffffffffffffffffffffffffffffffff163373ffffffffffffffffffffffffffffffffffffffff1614156112e2576040517f08c379a0000000000000000000000000000000000000000000000000000000008152600401808060200182810382526032815260200180611d196032913960400191505060405180910390fd5b6002808111156112ee57fe5b600260009054906101000a900460ff16600281111561130957fe5b1480156113225750600b60009054906101000a900460ff165b8061132f57506001544210155b6113a1576040517f08c379a00000000000000000000000000000000000000000000000000000000081526004018080602001828103825260168152602001807f41756374696f6e206e6f742079657420656e6465642e0000000000000000000081525060200191505060405180910390fd5b6000600960003373ffffffffffffffffffffffffffffffffffffffff1673ffffffffffffffffffffffffffffffffffffffff16815260200190815260200160002054905060008111156114bb576000600960003373ffffffffffffffffffffffffffffffffffffffff1673ffffffffffffffffffffffffffffffffffffffff168152602001908152602001600020819055503373ffffffffffffffffffffffffffffffffffffffff166108fc829081150290604051600060405180830381858888f193505050506114ba5780600960003373ffffffffffffffffffffffffffffffffffffffff1673ffffffffffffffffffffffffffffffffffffffff1681526020019081526020016000208190555060009150506114c1565b5b60019150505b90565b60085481565b60015481565b6000600a60008373ffffffffffffffffffffffffffffffffffffffff1673ffffffffffffffffffffffffffffffffffffffff168152602001908152602001600020549050919050565b600a6020528060005260406000206000915090505481565b600260019054906101000a900473ffffffffffffffffffffffffffffffffffffffff1673ffffffffffffffffffffffffffffffffffffffff16639d36788e600c546040518263ffffffff1660e01b81526004018082815260200191505060206040518083038186803b1580156115a657600080fd5b505afa1580156115ba573d6000803e3d6000fd5b505050506040513d60208110156115d057600080fd5b8101908080519060200190929190505050611653576040517f08c379a00000000000000000000000000000000000000000000000000000000081526004018080602001828103825260138152602001807f546f6b656e20646f65736e27742065786973740000000000000000000000000081525060200191505060405180910390fd5b6000600281111561166057fe5b600260009054906101000a900460ff16600281111561167b57fe5b14801561169e57506001600281111561169057fe5b81600281111561169c57fe5b145b806116ef5750600160028111156116b157fe5b600260009054906101000a900460ff1660028111156116cc57fe5b1480156116ee57506002808111156116e057fe5b8160028111156116ec57fe5b145b5b611761576040517f08c379a00000000000000000000000000000000000000000000000000000000081526004018080602001828103825260118152602001807f57726f6e67207374617465206f7264657200000000000000000000000000000081525060200191505060405180910390fd5b600360009054906101000a900473ffffffffffffffffffffffffffffffffffffffff1673ffffffffffffffffffffffffffffffffffffffff163373ffffffffffffffffffffffffffffffffffffffff16146117bb57600080fd5b600060028111156117c857fe5b600260009054906101000a900460ff1660028111156117e357fe5b1415611c13573073ffffffffffffffffffffffffffffffffffffffff16600260019054906101000a900473ffffffffffffffffffffffffffffffffffffffff1673ffffffffffffffffffffffffffffffffffffffff1663081812fc600c546040518263ffffffff1660e01b81526004018082815260200191505060206040518083038186803b15801561187557600080fd5b505afa158015611889573d6000803e3d6000fd5b505050506040513d602081101561189f57600080fd5b810190808051906020019092919050505073ffffffffffffffffffffffffffffffffffffffff161461191c576040517f08c379a0000000000000000000000000000000000000000000000000000000008152600401808060200182810382526033815260200180611d6c6033913960400191505060405180910390fd5b600260019054906101000a900473ffffffffffffffffffffffffffffffffffffffff1673ffffffffffffffffffffffffffffffffffffffff166323b872dd600260019054906101000a900473ffffffffffffffffffffffffffffffffffffffff1673ffffffffffffffffffffffffffffffffffffffff16636352211e600c546040518263ffffffff1660e01b81526004018082815260200191505060206040518083038186803b1580156119cf57600080fd5b505afa1580156119e3573d6000803e3d6000fd5b505050506040513d60208110156119f957600080fd5b810190808051906020019092919050505030600c546040518463ffffffff1660e01b8152600401808473ffffffffffffffffffffffffffffffffffffffff1673ffffffffffffffffffffffffffffffffffffffff1681526020018373ffffffffffffffffffffffffffffffffffffffff1673ffffffffffffffffffffffffffffffffffffffff1681526020018281526020019350505050600060405180830381600087803b158015611aaa57600080fd5b505af1158015611abe573d6000803e3d6000fd5b505050503073ffffffffffffffffffffffffffffffffffffffff16600260019054906101000a900473ffffffffffffffffffffffffffffffffffffffff1673ffffffffffffffffffffffffffffffffffffffff16636352211e600c546040518263ffffffff1660e01b81526004018082815260200191505060206040518083038186803b158015611b4e57600080fd5b505afa158015611b62573d6000803e3d6000fd5b505050506040513d6020811015611b7857600080fd5b810190808051906020019092919050505073ffffffffffffffffffffffffffffffffffffffff1614611c12576040517f08c379a000000000000000000000000000000000000000000000000000000000815260040180806020018281038252601e8152602001807f636f6e7472616374206973206e6f74206f776e6572206f6620746f6b656e000081525060200191505060405180910390fd5b5b80600260006101000a81548160ff02191690836002811115611c3157fe5b021790555050565b600260009054906101000a900460ff1681565b60075481565b600460009054906101000a900473ffffffffffffffffffffffffffffffffffffffff1681565b60008060006005541415611cc65760006007546103e860065481611c9857fe5b04026006540190506000600854606460065481611cb157fe5b04026006540190508181935093505050611d02565b60006007546103e860055481611cd857fe5b04026005540190506000600854606460055481611cf157fe5b040260055401905081819350935050505b9091565b600c5481565b60055481565b6006548156fe596f752063616e277420776974686472617720796f7572206269642c2073696e636520796f75206172652077696e6e657221596f752061726520616c7265616479207468652068696768657374426964646572596f75206d75737420617070726f76652061756374696f6e20746f206f706572617465207769746820796f757220746f6b656e61756374696f6e456e642068617320616c7265616479206265656e2063616c6c65642e596f757220626964206973206f7574206f6620616c6c6f7765642072616e6765202873746172742941756374696f6e20646f65736e27742061636365707420626964732061742074686973206d6f6d656e742e41756374696f6e20646f65736e277420616c6c6f772072657665616c2077696e6e65722061742074686973206d6f6d656e742e596f757220626964206973206f7574206f6620616c6c6f7765642072616e676520a265627a7a72315820306e8d69c2904929ba27afc111f2ca73955f286029335aa8fd5c2fa7126c15a364736f6c63430005100032a265627a7a72315820cb60e6bb54ec4eaff92b9eb174c216e7f8edaa9c53ba347a6544b95122c1a54164736f6c63430005100032",
  "source": "// AuctionBox.sol\r\n// We will be using Solidity version 0.5.3\r\npragma solidity 0.5.16;\r\n// Importing OpenZeppelin's SafeMath Implementation\r\nimport \"./SafeMath.sol\";\r\nimport \"./Diamond.sol\";\r\n\r\ncontract AuctionBox{\r\n    Diamond private token;\r\n    address internal admin;\r\n    \r\n    \r\n    EnglishAuction[] public auctions; \r\n    constructor() public {\r\n        admin = msg.sender;\r\n    }   \r\n    \r\n    modifier onlyOwner {\r\n        require(msg.sender == admin);\r\n        _;\r\n    }\r\n    function createAuction (Diamond _token, address payable _beneficiary, uint _biddingTime, \r\n                            uint _startPrice, uint256 _token_id, uint256 _step_min, uint256 _step_max)  onlyOwner public{\r\n        // set the new instance\r\n        EnglishAuction newEnglishAuction = new EnglishAuction(_token, msg.sender,\r\n            _biddingTime, _beneficiary, _startPrice, _token_id, _step_min, _step_max);\r\n        // push the auction address to auctions array\r\n        auctions.push(newEnglishAuction);\r\n    }\r\n    \r\n    function returnAllAuctions() public view returns(EnglishAuction[] memory){\r\n        return auctions;\r\n    }\r\n}\r\n\r\ncontract EnglishAuction {\r\n    // Auction possible states\r\n    enum AuctionStates {Init, AcceptBids, RevealWinner}\r\n    \r\n    // Parameters of the auction. Times are either\r\n    // absolute unix timestamps (seconds since 1970-01-01)\r\n    // or time periods in seconds.\r\n    \r\n    address payable public beneficiary;\r\n    uint public auctionEndTime;\r\n    AuctionStates public auctionState; // Current auction state\r\n    Diamond private token;\r\n    address private auction_owner;\r\n    modifier onlyOwner {\r\n        require(msg.sender == auction_owner);\r\n        _;\r\n    }\r\n\r\n    modifier tokenExist {\r\n        require(token.isExists(token_id), \"Token doesn't exist\");\r\n        _;\r\n    }\r\n\r\n    // Current state of the auction.\r\n    address public highestBidder;\r\n    uint public highestBid;\r\n    uint public startPrice;\r\n    uint public step_min;\r\n    uint public step_max;\r\n    \r\n    //uint public MIN_PERCENT = 0.005; \r\n    //uint public MAX_PERCENT = 0.05;\r\n    // Allowed withdrawals of previous bids\r\n    mapping(address => uint) pendingReturns;\r\n    mapping(address => uint) public participant_latest_bid;\r\n\r\n    // Set to true at the end, disallows any change.\r\n    // By default initialized to `false`.\r\n    bool public is_ended;\r\n    \r\n    uint256 public token_id;\r\n\r\n    // Events that will be emitted on changes.\r\n    event HighestBidIncreased(address bidder, uint amount);\r\n    event AuctionEnded(address winner, uint amount);\r\n\r\n    // The following is a so-called natspec comment,\r\n    // recognizable by the three slashes.\r\n    // It will be shown when the user is asked to\r\n    // confirm a transaction.\r\n\r\n    /// Create a simple auction with `_biddingTime`\r\n    /// seconds bidding time on behalf of the\r\n    /// beneficiary address `_beneficiary`.\r\n    constructor(\r\n        Diamond _token,\r\n        address _auction_owner,\r\n        uint _biddingTime,\r\n        address payable _beneficiary,\r\n        uint _startPrice,\r\n        uint256 _token_id,\r\n        uint256 _step_min,\r\n        uint256 _step_max\r\n            ) public {\r\n        \r\n        token = _token;\r\n        beneficiary = _beneficiary;\r\n        auctionEndTime = now + _biddingTime;\r\n        startPrice = _startPrice;\r\n        auction_owner = _auction_owner;\r\n        token_id = _token_id;\r\n        step_min = _step_min;\r\n        step_max = _step_max;\r\n        auctionState = AuctionStates.Init;\r\n    }\r\n    \r\n    // Changes auction state. Only owner can call this function\r\n    function changeAuctionState(AuctionStates state) tokenExist public {\r\n        // Revert call if sender is not owner of token.\r\n        require(\r\n            (auctionState == AuctionStates.Init && state == AuctionStates.AcceptBids) ||\r\n            (auctionState == AuctionStates.AcceptBids && state == AuctionStates.RevealWinner), \"Wrong state order\");  // guarantees auction order\r\n        require(msg.sender == auction_owner);\r\n        if (auctionState == AuctionStates.Init){\r\n            require(token.getApproved(token_id) == address(this), \"You must approve auction to operate with your token\");\r\n            token.transferFrom(token.ownerOf(token_id), address(this), token_id);  // guarantee that owner can't remove approval after init stage\r\n            require(token.ownerOf(token_id) == address(this), \"contract is not owner of token\");\r\n        }\r\n\r\n        auctionState = state;\r\n    }\r\n\r\n    /// Bid on the auction with the value sent\r\n    /// together with this transaction.\r\n    /// The value will only be refunded if the\r\n    /// auction is not won.\r\n    function bid() tokenExist public payable {\r\n        // No arguments are necessary, all\r\n        // information is already part of\r\n        // the transaction. The keyword payable\r\n        // is required for the function to\r\n        // be able to receive Ether.\r\n\r\n        // Revert the call if the bidding\r\n        // period is over.\r\n        \r\n        // Revert the call if auction bids accept period is over.\r\n        require(auctionState == AuctionStates.AcceptBids, \"Auction doesn't accept bids at this moment.\");\r\n        require(now <= auctionEndTime,\"Auction already ended.\");\r\n        require(msg.sender != highestBidder, \"You are already the highestBidder\");\r\n        // If the bid is not higher, send the\r\n        // money back.\r\n        require(msg.value + participant_latest_bid[msg.sender] >= startPrice); //msg.value (delta) + latest_bid\r\n        //if (highestBid == 0) {\r\n        //    require(msg.value + participant_latest_bid[msg.sender] > (1 + step_min/1000) wei * startPrice &&  msg.value + participant_latest_bid[msg.sender] < (1 + step_max/100) * startPrice, \"Your bid is out of allowed range (start)\");  /// \r\n        //} else {\r\n        //    require(msg.value + participant_latest_bid[msg.sender] > (1 + step_min/1000) * highestBid &&  msg.value + participant_latest_bid[msg.sender] < (1 + step_max/100) * highestBid, \"Your bid is out of allowed range \");  /// \r\n        //}\r\n        (uint256 min_bid, uint256 max_bid) = bid_range();\r\n        if (highestBid == 0) {\r\n            require(msg.value + participant_latest_bid[msg.sender] > min_bid  &&  msg.value + participant_latest_bid[msg.sender] <= max_bid , \"Your bid is out of allowed range (start)\");  /// \r\n        } else {\r\n            require(msg.value + participant_latest_bid[msg.sender] > min_bid  &&  msg.value + participant_latest_bid[msg.sender] <= max_bid , \"Your bid is out of allowed range \");  /// \r\n        }   // !!!! DELTA\r\n        \r\n        \r\n        //require(msg.value + participant_latest_bid[msg.sender] > (1 + step_min/1000) * highestBid &&  msg.value + participant_latest_bid[msg.sender] < (1 + step_max/100) * highestBid, \"Your bid is out of allowed range \");  /// msg.value + old_bid > highestBid + step_min && msg.value + old_bid <= highestBid + step_max\r\n        \r\n        // the first bid already in auction\r\n        if (highestBid != 0) {\r\n            // Sending back the money by simply using\r\n            // highestBidder.send(highestBid) is a security risk\r\n            // because it could execute an untrusted contract.\r\n            // It is always safer to let the recipients\r\n            // withdraw their money themselves.\r\n            pendingReturns[highestBidder] = participant_latest_bid[highestBidder]; /// += --> =\r\n        }\r\n\r\n        highestBidder = msg.sender;\r\n        highestBid = participant_latest_bid[highestBidder] + msg.value;\r\n        participant_latest_bid[msg.sender] += msg.value;\r\n        emit HighestBidIncreased(msg.sender, msg.value);\r\n    }\r\n\r\n    function get_latest_bid(address _address) public view returns (uint256) {\r\n        return participant_latest_bid[_address];\r\n    }\r\n\r\n    function bid_range() public view returns (uint256, uint256) {\r\n        if (highestBid == 0) {\r\n            uint256 a = startPrice + (startPrice/1e3)*step_min;\r\n            uint256 b = startPrice + (startPrice/1e2)*step_max;\r\n            return (a, b);\r\n        } else {\r\n            uint256 a = highestBid + (highestBid/1e3)*step_min;\r\n            uint256 b = highestBid + (highestBid/1e2)*step_max;\r\n            return (a, b);\r\n        }\r\n\r\n        \r\n    }\r\n    /// Withdraw a bid that was overbid.\r\n    function withdraw() public tokenExist returns (bool) {\r\n        // 1. Conditions\r\n        require(msg.sender != highestBidder, \"You can't withdraw your bid, since you are winner!\");\r\n        require((auctionState == AuctionStates.RevealWinner && is_ended) || now >= auctionEndTime , \"Auction not yet ended.\");\r\n        uint amount = pendingReturns[msg.sender];\r\n        if (amount > 0) {\r\n            // It is important to set this to zero because the recipient\r\n            // can call this function again as part of the receiving call\r\n            // before `send` returns.\r\n            pendingReturns[msg.sender] = 0;\r\n\r\n            if (!msg.sender.send(amount)) {\r\n                // No need to call throw here, just reset the amount owing\r\n                pendingReturns[msg.sender] = amount;\r\n                return false;\r\n            }\r\n        }\r\n        return true;\r\n    }\r\n\r\n    /// End the auction and send the highest bid\r\n    /// to the beneficiary.\r\n    function auctionEnd() public onlyOwner tokenExist {\r\n        // It is a good guideline to structure functions that interact\r\n        // with other contracts (i.e. they call functions or send Ether)\r\n        // into three phases:\r\n        // 1. checking conditions\r\n        // 2. performing actions (potentially changing conditions)\r\n        // 3. interacting with other contracts\r\n        // If these phases are mixed up, the other contract could call\r\n        // back into the current contract and modify the state or cause\r\n        // effects (ether payout) to be performed multiple times.\r\n        // If functions called internally include interaction with external\r\n        // contracts, they also have to be considered interaction with\r\n        // external contracts.\r\n        // Revert the call if auction bids accept period is over.\r\n        require(auctionState == AuctionStates.RevealWinner, \"Auction doesn't allow reveal winner at this moment.\");\r\n        // 1. Conditions\r\n        require(now >= auctionEndTime, \"Auction not yet ended.\");\r\n        require(!is_ended, \"auctionEnd has already been called.\");\r\n\r\n        // 2. Effects\r\n        is_ended = true;\r\n        emit AuctionEnded(highestBidder, highestBid);\r\n\r\n        // 3. Interaction\r\n        beneficiary.transfer(highestBid);\r\n        token.transferFrom(address(this), highestBidder, token_id);\r\n        \r\n    }\r\n}",
  "sourcePath": "D:/diamondsPlatform/compile/contracts/EnglishAuction.sol",
  "compiler": {
    "name": "solc",
    "version": "0.5.16+commit.9c3226ce.Emscripten.clang"
  },
  "schemaVersion": "3.3.3",
  "updatedAt": "2021-11-20T02:13:30.060Z",
  "devdoc": {
    "methods": {}
  },
  "userdoc": {
    "methods": {}
  }
}