{
  "contractName": "ClosedAuctionBox",
  "abi": [
    {
      "inputs": [
        {
          "internalType": "contract InsertionSorter",
          "name": "_array_sorter",
          "type": "address"
        }
      ],
      "payable": false,
      "stateMutability": "nonpayable",
      "type": "constructor"
    },
    {
      "constant": true,
      "inputs": [],
      "name": "array_sorter",
      "outputs": [
        {
          "internalType": "contract InsertionSorter",
          "name": "",
          "type": "address"
        }
      ],
      "payable": false,
      "stateMutability": "view",
      "type": "function"
    },
    {
      "constant": true,
      "inputs": [
        {
          "internalType": "uint256",
          "name": "",
          "type": "uint256"
        }
      ],
      "name": "auctions",
      "outputs": [
        {
          "internalType": "contract HashedClosedAuction",
          "name": "",
          "type": "address"
        }
      ],
      "payable": false,
      "stateMutability": "view",
      "type": "function"
    },
    {
      "constant": false,
      "inputs": [
        {
          "internalType": "contract ArtERC20Token",
          "name": "_erc20Token",
          "type": "address"
        },
        {
          "internalType": "contract Diamond",
          "name": "_token",
          "type": "address"
        },
        {
          "internalType": "uint256",
          "name": "_biddingTime",
          "type": "uint256"
        },
        {
          "internalType": "address payable",
          "name": "_beneficiary",
          "type": "address"
        },
        {
          "internalType": "uint256",
          "name": "_startPrice",
          "type": "uint256"
        },
        {
          "internalType": "uint256",
          "name": "_token_id",
          "type": "uint256"
        },
        {
          "internalType": "uint256",
          "name": "_auctionMaximumBidOverwriteCount",
          "type": "uint256"
        }
      ],
      "name": "createAuction",
      "outputs": [],
      "payable": false,
      "stateMutability": "nonpayable",
      "type": "function"
    },
    {
      "constant": true,
      "inputs": [],
      "name": "returnAllAuctions",
      "outputs": [
        {
          "internalType": "contract HashedClosedAuction[]",
          "name": "",
          "type": "address[]"
        }
      ],
      "payable": false,
      "stateMutability": "view",
      "type": "function"
    }
  ],
  "bytecode": "0x608060405234801561001057600080fd5b5060405161398c38038061398c8339818101604052602081101561003357600080fd5b810190808051906020019092919050505080600260006101000a81548173ffffffffffffffffffffffffffffffffffffffff021916908373ffffffffffffffffffffffffffffffffffffffff16021790555033600160006101000a81548173ffffffffffffffffffffffffffffffffffffffff021916908373ffffffffffffffffffffffffffffffffffffffff160217905550506138b6806100d66000396000f3fe608060405234801561001057600080fd5b506004361061004c5760003560e01c806332fff3ca14610051578063571a26a01461009b578063b7f9cfe714610109578063d1f28df6146101b5575b600080fd5b610059610214565b604051808273ffffffffffffffffffffffffffffffffffffffff1673ffffffffffffffffffffffffffffffffffffffff16815260200191505060405180910390f35b6100c7600480360360208110156100b157600080fd5b810190808035906020019092919050505061023a565b604051808273ffffffffffffffffffffffffffffffffffffffff1673ffffffffffffffffffffffffffffffffffffffff16815260200191505060405180910390f35b6101b3600480360360e081101561011f57600080fd5b81019080803573ffffffffffffffffffffffffffffffffffffffff169060200190929190803573ffffffffffffffffffffffffffffffffffffffff16906020019092919080359060200190929190803573ffffffffffffffffffffffffffffffffffffffff169060200190929190803590602001909291908035906020019092919080359060200190929190505050610276565b005b6101bd6104b6565b6040518080602001828103825283818151815260200191508051906020019060200280838360005b838110156102005780820151818401526020810190506101e5565b505050509050019250505060405180910390f35b600260009054906101000a900473ffffffffffffffffffffffffffffffffffffffff1681565b6003818154811061024757fe5b906000526020600020016000915054906101000a900473ffffffffffffffffffffffffffffffffffffffff1681565b600160009054906101000a900473ffffffffffffffffffffffffffffffffffffffff1673ffffffffffffffffffffffffffffffffffffffff163373ffffffffffffffffffffffffffffffffffffffff16146102d057600080fd5b6000600260009054906101000a900473ffffffffffffffffffffffffffffffffffffffff16888833898989898960405161030990610544565b808a73ffffffffffffffffffffffffffffffffffffffff1673ffffffffffffffffffffffffffffffffffffffff1681526020018973ffffffffffffffffffffffffffffffffffffffff1673ffffffffffffffffffffffffffffffffffffffff1681526020018873ffffffffffffffffffffffffffffffffffffffff1673ffffffffffffffffffffffffffffffffffffffff1681526020018773ffffffffffffffffffffffffffffffffffffffff1673ffffffffffffffffffffffffffffffffffffffff1681526020018681526020018573ffffffffffffffffffffffffffffffffffffffff1673ffffffffffffffffffffffffffffffffffffffff1681526020018481526020018381526020018281526020019950505050505050505050604051809103906000f080158015610443573d6000803e3d6000fd5b50905060038190806001815401808255809150509060018203906000526020600020016000909192909190916101000a81548173ffffffffffffffffffffffffffffffffffffffff021916908373ffffffffffffffffffffffffffffffffffffffff160217905550505050505050505050565b6060600380548060200260200160405190810160405280929190818152602001828054801561053a57602002820191906000526020600020905b8160009054906101000a900473ffffffffffffffffffffffffffffffffffffffff1673ffffffffffffffffffffffffffffffffffffffff16815260200190600101908083116104f0575b5050505050905090565b613330806105528339019056fe608060405234801561001057600080fd5b50604051613330380380613330833981810160405261012081101561003457600080fd5b81019080805190602001909291908051906020019092919080519060200190929190805190602001909291908051906020019092919080519060200190929190805190602001909291908051906020019092919080519060200190929190505050886000806101000a81548173ffffffffffffffffffffffffffffffffffffffff021916908373ffffffffffffffffffffffffffffffffffffffff16021790555086600360006101000a81548173ffffffffffffffffffffffffffffffffffffffff021916908373ffffffffffffffffffffffffffffffffffffffff16021790555087600460006101000a81548173ffffffffffffffffffffffffffffffffffffffff021916908373ffffffffffffffffffffffffffffffffffffffff16021790555083600260006101000a81548173ffffffffffffffffffffffffffffffffffffffff021916908373ffffffffffffffffffffffffffffffffffffffff1602179055508442016005819055508260078190555085600160006101000a81548173ffffffffffffffffffffffffffffffffffffffff021916908373ffffffffffffffffffffffffffffffffffffffff16021790555081600981905550806008819055506000600660006101000a81548160ff0219169083600381111561021657fe5b02179055505050505050505050506130fd806102336000396000f3fe608060405234801561001057600080fd5b50600436106100cf5760003560e01c80637ad00cd01161008c5780637fb45099116100665780637fb45099146102e4578063957bb1e014610310578063d56681311461033e578063dfbf53ae1461035c576100cf565b80637ad00cd0146102775780637c604b5f146102a85780637d0dc89b146102c6576100cf565b80632452cd30146100d457806332fff3ca146100f657806338af3eed146101405780634b449cba1461018a5780634bd59290146101a85780636c6999051461026d575b600080fd5b6100dc6103a6565b604051808215151515815260200191505060405180910390f35b6100fe6103b9565b604051808273ffffffffffffffffffffffffffffffffffffffff1673ffffffffffffffffffffffffffffffffffffffff16815260200191505060405180910390f35b6101486103de565b604051808273ffffffffffffffffffffffffffffffffffffffff1673ffffffffffffffffffffffffffffffffffffffff16815260200191505060405180910390f35b610192610404565b6040518082815260200191505060405180910390f35b61026b600480360360408110156101be57600080fd5b8101908080359060200190929190803590602001906401000000008111156101e557600080fd5b8201836020820111156101f757600080fd5b8035906020019184600183028401116401000000008311171561021957600080fd5b91908080601f016020809104026020016040519081016040528093929190818152602001838380828437600081840152601f19601f82011690508083019250505050505050919291929050505061040a565b005b610275610e8e565b005b6102a66004803603602081101561028d57600080fd5b81019080803560ff169060200190929190505050612044565b005b6102b061279e565b6040518082815260200191505060405180910390f35b6102ce6127a4565b6040518082815260200191505060405180910390f35b6102ec6127aa565b604051808260038111156102fc57fe5b60ff16815260200191505060405180910390f35b61033c6004803603602081101561032657600080fd5b81019080803590602001909291905050506127bd565b005b610346612ce7565b6040518082815260200191505060405180910390f35b610364612ced565b604051808273ffffffffffffffffffffffffffffffffffffffff1673ffffffffffffffffffffffffffffffffffffffff16815260200191505060405180910390f35b601060009054906101000a900460ff1681565b6000809054906101000a900473ffffffffffffffffffffffffffffffffffffffff1681565b600260009054906101000a900473ffffffffffffffffffffffffffffffffffffffff1681565b60055481565b600360009054906101000a900473ffffffffffffffffffffffffffffffffffffffff1673ffffffffffffffffffffffffffffffffffffffff16639d36788e6009546040518263ffffffff1660e01b81526004018082815260200191505060206040518083038186803b15801561047f57600080fd5b505afa158015610493573d6000803e3d6000fd5b505050506040513d60208110156104a957600080fd5b810190808051906020019092919050505061052c576040517f08c379a00000000000000000000000000000000000000000000000000000000081526004018080602001828103825260138152602001807f546f6b656e20646f65736e27742065786973740000000000000000000000000081525060200191505060405180910390fd5b6002600381111561053957fe5b600660009054906101000a900460ff16600381111561055457fe5b146105aa576040517f08c379a0000000000000000000000000000000000000000000000000000000008152600401808060200182810382526030815260200180612ff66030913960400191505060405180910390fd5b600554421115610622576040517f08c379a00000000000000000000000000000000000000000000000000000000081526004018080602001828103825260168152602001807f41756374696f6e20616c726561647920656e6465642e0000000000000000000081525060200191505060405180910390fd5b601060009054906101000a900460ff1615610688576040517f08c379a0000000000000000000000000000000000000000000000000000000008152600401808060200182810382526023815260200180612fa86023913960400191505060405180910390fd5b600073ffffffffffffffffffffffffffffffffffffffff16600a60009054906101000a900473ffffffffffffffffffffffffffffffffffffffff1673ffffffffffffffffffffffffffffffffffffffff161461074c576040517f08c379a00000000000000000000000000000000000000000000000000000000081526004018080602001828103825260198152602001807f57696e6e657220616c72656164792064657465726d696e65640000000000000081525060200191505060405180910390fd5b6007548210156107a7576040517f08c379a0000000000000000000000000000000000000000000000000000000008152600401808060200182810382526031815260200180612eaa6031913960400191505060405180910390fd5b81600460009054906101000a900473ffffffffffffffffffffffffffffffffffffffff1673ffffffffffffffffffffffffffffffffffffffff166370a08231336040518263ffffffff1660e01b8152600401808273ffffffffffffffffffffffffffffffffffffffff1673ffffffffffffffffffffffffffffffffffffffff16815260200191505060206040518083038186803b15801561084757600080fd5b505afa15801561085b573d6000803e3d6000fd5b505050506040513d602081101561087157600080fd5b810190808051906020019092919050505010156108d9576040517f08c379a0000000000000000000000000000000000000000000000000000000008152600401808060200182810382526031815260200180612f776031913960400191505060405180910390fd5b81600460009054906101000a900473ffffffffffffffffffffffffffffffffffffffff1673ffffffffffffffffffffffffffffffffffffffff1663dd62ed3e33306040518363ffffffff1660e01b8152600401808373ffffffffffffffffffffffffffffffffffffffff1673ffffffffffffffffffffffffffffffffffffffff1681526020018273ffffffffffffffffffffffffffffffffffffffff1673ffffffffffffffffffffffffffffffffffffffff1681526020019250505060206040518083038186803b1580156109ad57600080fd5b505afa1580156109c1573d6000803e3d6000fd5b505050506040513d60208110156109d757600080fd5b81019080805190602001909291905050501015610a3f576040517f08c379a00000000000000000000000000000000000000000000000000000000081526004018080602001828103825260708152602001806130266070913960800191505060405180910390fd5b610a47612d13565b600d60003373ffffffffffffffffffffffffffffffffffffffff1673ffffffffffffffffffffffffffffffffffffffff16815260200190815260200160002060405180608001604052908160008201548152602001600182015481526020016002820154815260200160038201548152505090506000816000015114610b35576040517f08c379a000000000000000000000000000000000000000000000000000000000815260040180806020018281038252601b8152602001807f596f7520616c72656164792070726f766520796f7572206269642e000000000081525060200191505060405180910390fd5b6000816060015111610b92576040517f08c379a0000000000000000000000000000000000000000000000000000000008152600401808060200182810382526033815260200180612f116033913960400191505060405180910390fd5b82826040516020018083815260200182805190602001908083835b60208310610bd05780518252602082019150602081019050602083039250610bad565b6001836020036101000a0380198251168184511680821785525050505050509050019250505060405160208183030381529060405280519060200120816040015114610c67576040517f08c379a000000000000000000000000000000000000000000000000000000000815260040180806020018281038252602c815260200180612e7e602c913960400191505060405180910390fd5b8281600001818152505080600d60003373ffffffffffffffffffffffffffffffffffffffff1673ffffffffffffffffffffffffffffffffffffffff16815260200190815260200160002060008201518160000155602082015181600101556040820151816002015560608201518160030155905050600e3390806001815401808255809150509060018203906000526020600020016000909192909190916101000a81548173ffffffffffffffffffffffffffffffffffffffff021916908373ffffffffffffffffffffffffffffffffffffffff16021790555050600f839080600181540180825580915050906001820390600052602060002001600090919290919091505550600c548310610e8957600c54831415610e3f57600d6000600b60009054906101000a900473ffffffffffffffffffffffffffffffffffffffff1673ffffffffffffffffffffffffffffffffffffffff1673ffffffffffffffffffffffffffffffffffffffff1681526020019081526020016000206001015481602001511015610e3a5733600b60006101000a81548173ffffffffffffffffffffffffffffffffffffffff021916908373ffffffffffffffffffffffffffffffffffffffff16021790555082600c819055505b610e88565b33600b60006101000a81548173ffffffffffffffffffffffffffffffffffffffff021916908373ffffffffffffffffffffffffffffffffffffffff16021790555082600c819055505b5b505050565b600360009054906101000a900473ffffffffffffffffffffffffffffffffffffffff1673ffffffffffffffffffffffffffffffffffffffff16639d36788e6009546040518263ffffffff1660e01b81526004018082815260200191505060206040518083038186803b158015610f0357600080fd5b505afa158015610f17573d6000803e3d6000fd5b505050506040513d6020811015610f2d57600080fd5b8101908080519060200190929190505050610fb0576040517f08c379a00000000000000000000000000000000000000000000000000000000081526004018080602001828103825260138152602001807f546f6b656e20646f65736e27742065786973740000000000000000000000000081525060200191505060405180910390fd5b600160009054906101000a900473ffffffffffffffffffffffffffffffffffffffff1673ffffffffffffffffffffffffffffffffffffffff163373ffffffffffffffffffffffffffffffffffffffff161461100a57600080fd5b60038081111561101657fe5b600660009054906101000a900460ff16600381111561103157fe5b14611087576040517f08c379a00000000000000000000000000000000000000000000000000000000081526004018080602001828103825260338152602001806130966033913960400191505060405180910390fd5b6005544211156110ff576040517f08c379a00000000000000000000000000000000000000000000000000000000081526004018080602001828103825260168152602001807f41756374696f6e20616c726561647920656e6465642e0000000000000000000081525060200191505060405180910390fd5b601060009054906101000a900460ff1615611165576040517f08c379a0000000000000000000000000000000000000000000000000000000008152600401808060200182810382526023815260200180612fa86023913960400191505060405180910390fd5b600073ffffffffffffffffffffffffffffffffffffffff16600a60009054906101000a900473ffffffffffffffffffffffffffffffffffffffff1673ffffffffffffffffffffffffffffffffffffffff1614611229576040517f08c379a00000000000000000000000000000000000000000000000000000000081526004018080602001828103825260198152602001807f57696e6e657220616c72656164792064657465726d696e65640000000000000081525060200191505060405180910390fd5b600c54600460009054906101000a900473ffffffffffffffffffffffffffffffffffffffff1673ffffffffffffffffffffffffffffffffffffffff166370a08231600b60009054906101000a900473ffffffffffffffffffffffffffffffffffffffff166040518263ffffffff1660e01b8152600401808273ffffffffffffffffffffffffffffffffffffffff1673ffffffffffffffffffffffffffffffffffffffff16815260200191505060206040518083038186803b1580156112ed57600080fd5b505afa158015611301573d6000803e3d6000fd5b505050506040513d602081101561131757600080fd5b8101908080519060200190929190505050101580156114675750600c54600460009054906101000a900473ffffffffffffffffffffffffffffffffffffffff1673ffffffffffffffffffffffffffffffffffffffff1663dd62ed3e600b60009054906101000a900473ffffffffffffffffffffffffffffffffffffffff16306040518363ffffffff1660e01b8152600401808373ffffffffffffffffffffffffffffffffffffffff1673ffffffffffffffffffffffffffffffffffffffff1681526020018273ffffffffffffffffffffffffffffffffffffffff1673ffffffffffffffffffffffffffffffffffffffff1681526020019250505060206040518083038186803b15801561142957600080fd5b505afa15801561143d573d6000803e3d6000fd5b505050506040513d602081101561145357600080fd5b810190808051906020019092919050505010155b156117f657600460009054906101000a900473ffffffffffffffffffffffffffffffffffffffff1673ffffffffffffffffffffffffffffffffffffffff166323b872dd600b60009054906101000a900473ffffffffffffffffffffffffffffffffffffffff16600260009054906101000a900473ffffffffffffffffffffffffffffffffffffffff16600c546040518463ffffffff1660e01b8152600401808473ffffffffffffffffffffffffffffffffffffffff1673ffffffffffffffffffffffffffffffffffffffff1681526020018373ffffffffffffffffffffffffffffffffffffffff1673ffffffffffffffffffffffffffffffffffffffff1681526020018281526020019350505050602060405180830381600087803b15801561158f57600080fd5b505af11580156115a3573d6000803e3d6000fd5b505050506040513d60208110156115b957600080fd5b8101908080519060200190929190505050506001601060006101000a81548160ff0219169083151502179055507fdaec4582d5d9595688c8c98545fdd1c696d41c6aeaeb636737e84ed2f5c00eda600b60009054906101000a900473ffffffffffffffffffffffffffffffffffffffff16600c54604051808373ffffffffffffffffffffffffffffffffffffffff1673ffffffffffffffffffffffffffffffffffffffff1681526020018281526020019250505060405180910390a1600360009054906101000a900473ffffffffffffffffffffffffffffffffffffffff1673ffffffffffffffffffffffffffffffffffffffff166323b872dd30600b60009054906101000a900473ffffffffffffffffffffffffffffffffffffffff166009546040518463ffffffff1660e01b8152600401808473ffffffffffffffffffffffffffffffffffffffff1673ffffffffffffffffffffffffffffffffffffffff1681526020018373ffffffffffffffffffffffffffffffffffffffff1673ffffffffffffffffffffffffffffffffffffffff1681526020018281526020019350505050600060405180830381600087803b15801561177657600080fd5b505af115801561178a573d6000803e3d6000fd5b50505050600b60009054906101000a900473ffffffffffffffffffffffffffffffffffffffff16600a60006101000a81548173ffffffffffffffffffffffffffffffffffffffff021916908373ffffffffffffffffffffffffffffffffffffffff160217905550612042565b6000809054906101000a900473ffffffffffffffffffffffffffffffffffffffff1673ffffffffffffffffffffffffffffffffffffffff16634e9d19d3600f600e6040518363ffffffff1660e01b8152600401808060200180602001838103835285818154815260200191508054801561188f57602002820191906000526020600020905b81548152602001906001019080831161187b575b5050838103825284818154815260200191508054801561190457602002820191906000526020600020905b8160009054906101000a900473ffffffffffffffffffffffffffffffffffffffff1673ffffffffffffffffffffffffffffffffffffffff16815260200190600101908083116118ba575b505094505050505060006040518083038186803b15801561192457600080fd5b505afa158015611938573d6000803e3d6000fd5b505050506040513d6000823e3d601f19601f82011682018060405250604081101561196257600080fd5b810190808051604051939291908464010000000082111561198257600080fd5b8382019150602082018581111561199857600080fd5b82518660208202830111640100000000821117156119b557600080fd5b8083526020830192505050908051906020019060200280838360005b838110156119ec5780820151818401526020810190506119d1565b5050505090500160405260200180516040519392919084640100000000821115611a1557600080fd5b83820191506020820185811115611a2b57600080fd5b8251866020820283011164010000000082111715611a4857600080fd5b8083526020830192505050908051906020019060200280838360005b83811015611a7f578082015181840152602081019050611a64565b50505050905001604052505050600f6000600e6000849190509080519060200190611aab929190612d3e565b50839190509080519060200190611ac3929190612dc8565b50505060006001600e805490500390505b60008110612040576000600e8281548110611aeb57fe5b9060005260206000200160009054906101000a900473ffffffffffffffffffffffffffffffffffffffff1690506000600f8381548110611b2757fe5b9060005260206000200154905080600460009054906101000a900473ffffffffffffffffffffffffffffffffffffffff1673ffffffffffffffffffffffffffffffffffffffff166370a08231846040518263ffffffff1660e01b8152600401808273ffffffffffffffffffffffffffffffffffffffff1673ffffffffffffffffffffffffffffffffffffffff16815260200191505060206040518083038186803b158015611bd457600080fd5b505afa158015611be8573d6000803e3d6000fd5b505050506040513d6020811015611bfe57600080fd5b810190808051906020019092919050505010158015611d2a575080600460009054906101000a900473ffffffffffffffffffffffffffffffffffffffff1673ffffffffffffffffffffffffffffffffffffffff1663dd62ed3e84306040518363ffffffff1660e01b8152600401808373ffffffffffffffffffffffffffffffffffffffff1673ffffffffffffffffffffffffffffffffffffffff1681526020018273ffffffffffffffffffffffffffffffffffffffff1673ffffffffffffffffffffffffffffffffffffffff1681526020019250505060206040518083038186803b158015611cec57600080fd5b505afa158015611d00573d6000803e3d6000fd5b505050506040513d6020811015611d1657600080fd5b810190808051906020019092919050505010155b1561203057600460009054906101000a900473ffffffffffffffffffffffffffffffffffffffff1673ffffffffffffffffffffffffffffffffffffffff166323b872dd83600260009054906101000a900473ffffffffffffffffffffffffffffffffffffffff16846040518463ffffffff1660e01b8152600401808473ffffffffffffffffffffffffffffffffffffffff1673ffffffffffffffffffffffffffffffffffffffff1681526020018373ffffffffffffffffffffffffffffffffffffffff1673ffffffffffffffffffffffffffffffffffffffff1681526020018281526020019350505050602060405180830381600087803b158015611e2e57600080fd5b505af1158015611e42573d6000803e3d6000fd5b505050506040513d6020811015611e5857600080fd5b8101908080519060200190929190505050506001601060006101000a81548160ff0219169083151502179055507fdaec4582d5d9595688c8c98545fdd1c696d41c6aeaeb636737e84ed2f5c00eda8282604051808373ffffffffffffffffffffffffffffffffffffffff1673ffffffffffffffffffffffffffffffffffffffff1681526020018281526020019250505060405180910390a1600360009054906101000a900473ffffffffffffffffffffffffffffffffffffffff1673ffffffffffffffffffffffffffffffffffffffff166323b872dd30846009546040518463ffffffff1660e01b8152600401808473ffffffffffffffffffffffffffffffffffffffff1673ffffffffffffffffffffffffffffffffffffffff1681526020018373ffffffffffffffffffffffffffffffffffffffff1673ffffffffffffffffffffffffffffffffffffffff1681526020018281526020019350505050600060405180830381600087803b158015611fcf57600080fd5b505af1158015611fe3573d6000803e3d6000fd5b5050505081600a60006101000a81548173ffffffffffffffffffffffffffffffffffffffff021916908373ffffffffffffffffffffffffffffffffffffffff160217905550505050612042565b5050808060019003915050611ad4565b505b565b600360009054906101000a900473ffffffffffffffffffffffffffffffffffffffff1673ffffffffffffffffffffffffffffffffffffffff16639d36788e6009546040518263ffffffff1660e01b81526004018082815260200191505060206040518083038186803b1580156120b957600080fd5b505afa1580156120cd573d6000803e3d6000fd5b505050506040513d60208110156120e357600080fd5b8101908080519060200190929190505050612166576040517f08c379a00000000000000000000000000000000000000000000000000000000081526004018080602001828103825260138152602001807f546f6b656e20646f65736e27742065786973740000000000000000000000000081525060200191505060405180910390fd5b6000600381111561217357fe5b600660009054906101000a900460ff16600381111561218e57fe5b1480156121b15750600160038111156121a357fe5b8160038111156121af57fe5b145b806122035750600160038111156121c457fe5b600660009054906101000a900460ff1660038111156121df57fe5b1480156122025750600260038111156121f457fe5b81600381111561220057fe5b145b5b8061225457506002600381111561221657fe5b600660009054906101000a900460ff16600381111561223157fe5b148015612253575060038081111561224557fe5b81600381111561225157fe5b145b5b6122c6576040517f08c379a00000000000000000000000000000000000000000000000000000000081526004018080602001828103825260118152602001807f57726f6e67207374617465206f7264657200000000000000000000000000000081525060200191505060405180910390fd5b600160009054906101000a900473ffffffffffffffffffffffffffffffffffffffff1673ffffffffffffffffffffffffffffffffffffffff163373ffffffffffffffffffffffffffffffffffffffff161461232057600080fd5b6000600381111561232d57fe5b600660009054906101000a900460ff16600381111561234857fe5b1415612778573073ffffffffffffffffffffffffffffffffffffffff16600360009054906101000a900473ffffffffffffffffffffffffffffffffffffffff1673ffffffffffffffffffffffffffffffffffffffff1663081812fc6009546040518263ffffffff1660e01b81526004018082815260200191505060206040518083038186803b1580156123da57600080fd5b505afa1580156123ee573d6000803e3d6000fd5b505050506040513d602081101561240457600080fd5b810190808051906020019092919050505073ffffffffffffffffffffffffffffffffffffffff1614612481576040517f08c379a0000000000000000000000000000000000000000000000000000000008152600401808060200182810382526033815260200180612f446033913960400191505060405180910390fd5b600360009054906101000a900473ffffffffffffffffffffffffffffffffffffffff1673ffffffffffffffffffffffffffffffffffffffff166323b872dd600360009054906101000a900473ffffffffffffffffffffffffffffffffffffffff1673ffffffffffffffffffffffffffffffffffffffff16636352211e6009546040518263ffffffff1660e01b81526004018082815260200191505060206040518083038186803b15801561253457600080fd5b505afa158015612548573d6000803e3d6000fd5b505050506040513d602081101561255e57600080fd5b8101908080519060200190929190505050306009546040518463ffffffff1660e01b8152600401808473ffffffffffffffffffffffffffffffffffffffff1673ffffffffffffffffffffffffffffffffffffffff1681526020018373ffffffffffffffffffffffffffffffffffffffff1673ffffffffffffffffffffffffffffffffffffffff1681526020018281526020019350505050600060405180830381600087803b15801561260f57600080fd5b505af1158015612623573d6000803e3d6000fd5b505050503073ffffffffffffffffffffffffffffffffffffffff16600360009054906101000a900473ffffffffffffffffffffffffffffffffffffffff1673ffffffffffffffffffffffffffffffffffffffff16636352211e6009546040518263ffffffff1660e01b81526004018082815260200191505060206040518083038186803b1580156126b357600080fd5b505afa1580156126c7573d6000803e3d6000fd5b505050506040513d60208110156126dd57600080fd5b810190808051906020019092919050505073ffffffffffffffffffffffffffffffffffffffff1614612777576040517f08c379a000000000000000000000000000000000000000000000000000000000815260040180806020018281038252601e8152602001807f636f6e7472616374206973206e6f74206f776e6572206f6620746f6b656e000081525060200191505060405180910390fd5b5b80600660006101000a81548160ff0219169083600381111561279657fe5b021790555050565b60075481565b60085481565b600660009054906101000a900460ff1681565b600360009054906101000a900473ffffffffffffffffffffffffffffffffffffffff1673ffffffffffffffffffffffffffffffffffffffff16639d36788e6009546040518263ffffffff1660e01b81526004018082815260200191505060206040518083038186803b15801561283257600080fd5b505afa158015612846573d6000803e3d6000fd5b505050506040513d602081101561285c57600080fd5b81019080805190602001909291905050506128df576040517f08c379a00000000000000000000000000000000000000000000000000000000081526004018080602001828103825260138152602001807f546f6b656e20646f65736e27742065786973740000000000000000000000000081525060200191505060405180910390fd5b600160038111156128ec57fe5b600660009054906101000a900460ff16600381111561290757fe5b1461295d576040517f08c379a000000000000000000000000000000000000000000000000000000000815260040180806020018281038252602b815260200180612fcb602b913960400191505060405180910390fd5b6005544211156129d5576040517f08c379a00000000000000000000000000000000000000000000000000000000081526004018080602001828103825260168152602001807f41756374696f6e20616c726561647920656e6465642e0000000000000000000081525060200191505060405180910390fd5b601060009054906101000a900460ff1615612a3b576040517f08c379a0000000000000000000000000000000000000000000000000000000008152600401808060200182810382526023815260200180612fa86023913960400191505060405180910390fd5b600073ffffffffffffffffffffffffffffffffffffffff16600a60009054906101000a900473ffffffffffffffffffffffffffffffffffffffff1673ffffffffffffffffffffffffffffffffffffffff1614612aff576040517f08c379a00000000000000000000000000000000000000000000000000000000081526004018080602001828103825260198152602001807f57696e6e657220616c72656164792064657465726d696e65640000000000000081525060200191505060405180910390fd5b60208060ff1614612b78576040517f08c379a000000000000000000000000000000000000000000000000000000000815260040180806020018281038252601a8152602001807f486173682073686f756c642062652066697865642073697a652100000000000081525060200191505060405180910390fd5b612b80612d13565b600d60003373ffffffffffffffffffffffffffffffffffffffff1673ffffffffffffffffffffffffffffffffffffffff168152602001908152602001600020604051806080016040529081600082015481526020016001820154815260200160028201548152602001600382015481525050905060085481606001511115612c53576040517f08c379a0000000000000000000000000000000000000000000000000000000008152600401808060200182810382526036815260200180612edb6036913960400191505060405180910390fd5b4281602001818152505081816040018181525050600181606001510181606001818152505080600d60003373ffffffffffffffffffffffffffffffffffffffff1673ffffffffffffffffffffffffffffffffffffffff168152602001908152602001600020600082015181600001556020820151816001015560408201518160020155606082015181600301559050505050565b60095481565b600a60009054906101000a900473ffffffffffffffffffffffffffffffffffffffff1681565b6040518060800160405280600081526020016000815260200160008019168152602001600081525090565b828054828255906000526020600020908101928215612db7579160200282015b82811115612db65782518260006101000a81548173ffffffffffffffffffffffffffffffffffffffff021916908373ffffffffffffffffffffffffffffffffffffffff16021790555091602001919060010190612d5e565b5b509050612dc49190612e15565b5090565b828054828255906000526020600020908101928215612e04579160200282015b82811115612e03578251825591602001919060010190612de8565b5b509050612e119190612e58565b5090565b612e5591905b80821115612e5157600081816101000a81549073ffffffffffffffffffffffffffffffffffffffff021916905550600101612e1b565b5090565b90565b612e7a91905b80821115612e76576000816000905550600101612e5e565b5090565b9056fe50726f766520626964206661696c65642e20496e76616c69642062696456616c756520616e642053616c742e4269642076616c7565206e6565647320746f20626520626967676572207468656e206d696e696d616c4269645072696365596f757220746f74616c206269647320636f756e746572206973206f7665722e205361766564206f6e6c79206c617465737420626964596f75206d757374206d616b6520626964206174206c6561737420312074696d652c206265666f72652070726f766520697421596f75206d75737420617070726f76652061756374696f6e20746f206f706572617465207769746820796f757220746f6b656e5468652062616c616e6365206f66206d73672e73656e646572206973206c657373207468656e206269642076616c75652161756374696f6e456e642068617320616c7265616479206265656e2063616c6c65642e41756374696f6e20646f65736e27742061636365707420626964732061742074686973206d6f6d656e742e41756374696f6e20646f65736e277420616c6c6f772070726f766520626964732061742074686973206d6f6d656e742e546865207573657220646964206e6f7420616c6c6f772074686520636f6e747261637420746f207472616e73666572207468652076616c7565206f66207468652062657420746f207468652062656e6566696369617279206966206865206265636f6d6573207468652077696e6e657241756374696f6e20646f65736e277420616c6c6f772072657665616c2077696e6e65722061742074686973206d6f6d656e742ea265627a7a72315820b36273d209564570bfd0927259ab54ef066b5b21423cfec2ea48683795fe032064736f6c63430005100032a265627a7a72315820341a5cfae205b37ead8c393a546940440afedcaf4f4a1526ed2388f39195f43064736f6c63430005100032",
  "source": "// We will be using Solidity version 0.5.3\r\npragma solidity 0.5.16;\r\n\r\n// Importing OpenZeppelin's SafeMath Implementation\r\nimport \"./SafeMath.sol\";\r\nimport \"./Diamond.sol\";  // Token Contract\r\nimport \"./ArtERC20.sol\"; // ERC20 contract\r\nimport \"./InsertionSorter.sol\";\r\n\r\ncontract ClosedAuctionBox{\r\n    Diamond private token;\r\n    address internal admin;\r\n    InsertionSorter public array_sorter;\r\n    \r\n    HashedClosedAuction[] public auctions; \r\n    constructor(InsertionSorter _array_sorter) public {\r\n        array_sorter = _array_sorter;\r\n        admin = msg.sender;\r\n    }   \r\n    \r\n    modifier onlyOwner {\r\n        require(msg.sender == admin);\r\n        _;\r\n    }\r\n    function createAuction ( ArtERC20Token _erc20Token,\r\n        Diamond _token,\r\n        uint _biddingTime,\r\n        address payable _beneficiary,\r\n        uint _startPrice,\r\n        uint256 _token_id,\r\n        uint256 _auctionMaximumBidOverwriteCount)  onlyOwner public{\r\n        // set the new instance\r\n        HashedClosedAuction closedAuction = new HashedClosedAuction(array_sorter, _erc20Token,\r\n        _token, msg.sender, _biddingTime, _beneficiary, _startPrice, _token_id, _auctionMaximumBidOverwriteCount);\r\n        // push the auction address to auctions array\r\n        auctions.push(closedAuction);\r\n    }\r\n    \r\n    function returnAllAuctions() public view returns(HashedClosedAuction[] memory){\r\n        return auctions;\r\n    }\r\n}\r\n\r\n\r\ncontract HashedClosedAuction {\r\n    InsertionSorter public array_sorter;\r\n    // * Data Structures *\r\n    // -----------------------\r\n    // Auction possible states\r\n    enum AuctionStates {Init, AcceptBids, ProveBids, RevealWinner}\r\n\r\n    // Bid Data structure\r\n    struct BidData {\r\n        // We store bid value only at `ProveBids` stage to determine user with highest bid.\r\n        uint256 provedBidValue; \r\n        // We store timestamp to determine first highest bidder at `ProveBids` stage if bids values is equal.\r\n        uint bidTimestamp;\r\n        // Hash of bid value and salt. Bidder generates it by itself.\r\n        bytes32 bidHash;\r\n        // Count of bids made by this bidder\r\n        uint bidsCounter;\r\n    }\r\n\r\n    // * Auction parameters *\r\n    // -----------------------\r\n    address private owner;  // ART Token owner\r\n    address payable public beneficiary;  // \"\"\r\n    // Parameters of the auction. Times are either\r\n    // absolute unix timestamps (seconds since 1970-01-01)\r\n    // or time periods in seconds.\r\n    Diamond private token;\r\n    ArtERC20Token private erc20Token;  // ERC20 Token used for make bids.\r\n    uint public auctionEndTime;\r\n    AuctionStates public auctionState; // Current auction state\r\n    uint public auctionMinimalBidPrice;  // Minimal bid price.\r\n    uint256 public auctionMaximumBidOverwriteCount;  // Maximal bid overwrite count for single bidder\r\n\r\n    // ART Token parameters for check existing of it and next transfer ownership to winner, when auction finished\r\n    uint256 public token_id;\r\n\r\n    // * Different variables *\r\n    // -----------------------\r\n\r\n    // Address of auction's winner.\r\n    // It will update when auction becomes to `RevealWinner` state .\r\n    // Defaults to zero address in the blockchain (0x000000...000).\r\n    address public winner;\r\n    \r\n    // When auction comes to `ProveBids` state, we will save highest proved bid to this variable\r\n    address private provedUserWithHighestBid;\r\n    uint private provedHighestBid;\r\n\r\n    // Mapping Bidder address to his bid.\r\n    // At `AcceptBids` state we store info about bid to this mapping.\r\n    // At `ProveBids` state we are using this data to validate bids.\r\n    mapping(address => BidData) private biddersBidData;\r\n    \r\n    // Array of users that successfully proved their bids at `ProveBids` auction stage.\r\n    address[] private usersBidsProved;\r\n    uint256[] private usersBidsProvedValues;\r\n    \r\n    \r\n    // Set to true at the end, disallows any change.\r\n    // By default initialized to `false`.\r\n    bool public is_ended;\r\n\r\n    // Events that will be emitted on changes.\r\n    event AuctionEnded(address winner, uint amount);\r\n\r\n    // The following is a so-called natspec comment,\r\n    // recognizable by the three slashes.\r\n    // It will be shown when the user is asked to\r\n    // confirm a transaction.\r\n\r\n    /// Create a simple auction with `_biddingTime`\r\n    /// seconds bidding time on behalf of the\r\n    /// beneficiary address `_beneficiary`.\r\n    constructor(\r\n        InsertionSorter _array_sorter,\r\n        ArtERC20Token _erc20Token,\r\n        Diamond _token,\r\n        address _owner,\r\n        uint _biddingTime,\r\n        address payable _beneficiary,\r\n        uint _startPrice,\r\n        uint256 _token_id,\r\n        uint256 _auctionMaximumBidOverwriteCount\r\n            ) public {\r\n        array_sorter = _array_sorter;\r\n        token = _token;\r\n        erc20Token = _erc20Token;\r\n        beneficiary = _beneficiary;\r\n        auctionEndTime = now + _biddingTime;\r\n        auctionMinimalBidPrice = _startPrice;\r\n        owner = _owner;\r\n        token_id = _token_id;\r\n        auctionMaximumBidOverwriteCount = _auctionMaximumBidOverwriteCount;\r\n        auctionState = AuctionStates.Init;\r\n    }\r\n\r\n    modifier tokenExist {\r\n            require(token.isExists(token_id), \"Token doesn't exist\");\r\n        _;\r\n    }\r\n\r\n    function bid(bytes32 hash) tokenExist public {\r\n        // Revert the call if auction bids accept period is over.\r\n        require(auctionState == AuctionStates.AcceptBids, \"Auction doesn't accept bids at this moment.\");\r\n        // Revert the call if the auction is expired\r\n        require(now <= auctionEndTime,\"Auction already ended.\");\r\n        require(!is_ended, \"auctionEnd has already been called.\");\r\n        \r\n        // Revert the call if winner already determined\r\n        require(winner == address(0), \"Winner already determined\");\r\n        \r\n        // Revert the call if passed hash is not needed size\r\n        require(hash.length == 32, \"Hash should be fixed size!\");\r\n        \r\n        BidData memory senderBidData = biddersBidData[msg.sender];\r\n        // Revert the call if bids overwrite counter is over for current bidder\r\n        require(senderBidData.bidsCounter <= auctionMaximumBidOverwriteCount, \"Your total bids counter is over. Saved only latest bid\");\r\n\r\n        senderBidData.bidTimestamp = now;\r\n        senderBidData.bidHash = hash;\r\n        senderBidData.bidsCounter = senderBidData.bidsCounter + 1;\r\n         // Write current bid to biddersBidData\r\n        biddersBidData[msg.sender] = senderBidData;\r\n\r\n    }\r\n    \r\n    // Prove bid at `ProveBids` stage of auction.\r\n    function proveBid(uint256 bidValue, string memory salt) tokenExist public {\r\n        // Revert the call if auction bids prove period is over.\r\n        require(auctionState == AuctionStates.ProveBids, \"Auction doesn't allow prove bids at this moment.\");\r\n        \r\n        // Revert the call if the auction is expired\r\n        require(now <= auctionEndTime,\"Auction already ended.\");\r\n        require(!is_ended, \"auctionEnd has already been called.\");\r\n         \r\n        // Revert the call if winner already determined\r\n        require(winner == address(0), \"Winner already determined\");\r\n\r\n        // Revert the call if bid less then minimal bid for this auction\r\n        require(bidValue>=auctionMinimalBidPrice, \"Bid value needs to be bigger then minimalBidPrice\");\r\n\r\n        // Revert the call if user's balance of specified ERC20 Token less then bid value\r\n        require(erc20Token.balanceOf(msg.sender)>=bidValue, \r\n            \"The balance of msg.sender is less then bid value!\");\r\n            \r\n        // Revert the call if user did not allow the contract to transfer the value of the bet to the beneficiary if he becomes the winner\r\n        require(erc20Token.allowance(msg.sender, address(this)) >= bidValue,\r\n            \"The user did not allow the contract to transfer the value of the bet to the beneficiary if he becomes the winner\");\r\n\r\n        BidData memory senderBidData = biddersBidData[msg.sender];\r\n        // Revert the call if user already proved his bid.\r\n        require(senderBidData.provedBidValue == 0, \"You already prove your bid.\");\r\n        // Revert the call if user doesn't make any bids in this auction, but tries prove non-existent bid.\r\n        require(senderBidData.bidsCounter > 0, \"You must make bid at least 1 time, before prove it!\");\r\n        // Revert the call if user bidValue and salt doesn't provide same hash for hash of bid made at `AcceptBids` auction stage\r\n        require(senderBidData.bidHash == keccak256(abi.encodePacked(bidValue, salt)), \"Prove bid failed. Invalid bidValue and Salt.\");\r\n\r\n        // Save bid value to db to determine next winner if contract can't transfer tokens to beneficiary from winner balance at `RevealWinner` stage.\r\n        senderBidData.provedBidValue = bidValue;\r\n        biddersBidData[msg.sender] = senderBidData;\r\n        usersBidsProved.push(msg.sender);\r\n        usersBidsProvedValues.push(bidValue);\r\n        // Check current proved highest bidder and change it if bid timestamp < bid timestamp of current highest bidder and bidValue >= provedHighestBid\r\n        if (bidValue>=provedHighestBid){\r\n            if (bidValue == provedHighestBid){\r\n                if (senderBidData.bidTimestamp < biddersBidData[provedUserWithHighestBid].bidTimestamp) {\r\n                    provedUserWithHighestBid = msg.sender;\r\n                    provedHighestBid = bidValue;\r\n                }\r\n            } else {\r\n                provedUserWithHighestBid = msg.sender;\r\n                provedHighestBid = bidValue;\r\n            }\r\n        }\r\n\r\n        \r\n    }\r\n\r\n    // Changes auction state. Only owner can call this function\r\n    function changeAuctionState(AuctionStates state) tokenExist public {\r\n        // Revert call if sender is not owner of token.\r\n        require(\r\n            (auctionState == AuctionStates.Init && state == AuctionStates.AcceptBids) ||\r\n            (auctionState == AuctionStates.AcceptBids && state == AuctionStates.ProveBids) ||\r\n            (auctionState == AuctionStates.ProveBids && state == AuctionStates.RevealWinner), \"Wrong state order\");  // guarantees auction order\r\n        require(msg.sender == owner);\r\n        if (auctionState == AuctionStates.Init){\r\n            require(token.getApproved(token_id) == address(this), \"You must approve auction to operate with your token\");\r\n            token.transferFrom(token.ownerOf(token_id), address(this), token_id);  // guarantee that owner can't remove approval after init stage\r\n            require(token.ownerOf(token_id) == address(this), \"contract is not owner of token\");\r\n        }\r\n\r\n        auctionState = state;\r\n    }\r\n    \r\n\r\n    // Reveal winner at `RevealWinner` auction stage. Only owner can call this function\r\n    function revealWinner() tokenExist public {\r\n        // Revert call if sender is not owner of token.\r\n        require(msg.sender == owner);\r\n        // Revert the call if auction bids prove period is over.\r\n        require(auctionState == AuctionStates.RevealWinner, \"Auction doesn't allow reveal winner at this moment.\");\r\n        \r\n        // Revert the call if the auction is expired\r\n        require(now <= auctionEndTime,\"Auction already ended.\");\r\n        require(!is_ended, \"auctionEnd has already been called.\");\r\n         \r\n        // Revert the call if winner already determined\r\n        require(winner == address(0), \"Winner already determined\");\r\n        \r\n        if(erc20Token.balanceOf(provedUserWithHighestBid)>=provedHighestBid \r\n            && erc20Token.allowance(provedUserWithHighestBid, address(this))>=provedHighestBid)\r\n        {\r\n            // \"Shut up and take my money!\"\r\n            erc20Token.transferFrom(provedUserWithHighestBid, beneficiary, provedHighestBid);\r\n            // Make Auction Ended\r\n            is_ended = true;\r\n            emit AuctionEnded(provedUserWithHighestBid, provedHighestBid);\r\n            // Transfer ownership\r\n            token.transferFrom(address(this), provedUserWithHighestBid, token_id);\r\n            winner = provedUserWithHighestBid;\r\n            return();\r\n            \r\n        } \r\n         else {\r\n            (usersBidsProvedValues, usersBidsProved) = array_sorter.sort(usersBidsProvedValues, usersBidsProved);\r\n            \r\n            \r\n            for(uint i=usersBidsProved.length-1; i>=0; i--){\r\n                address next_proved_winner = usersBidsProved[i];\r\n                uint next_proved_winner_bid = usersBidsProvedValues[i];\r\n                if(erc20Token.balanceOf(next_proved_winner)>=next_proved_winner_bid \r\n                    && erc20Token.allowance(next_proved_winner, address(this))>=next_proved_winner_bid)\r\n                {\r\n                    // \"Shut up and take my money!\"\r\n                    erc20Token.transferFrom(next_proved_winner, beneficiary, next_proved_winner_bid);\r\n                    // Make Auction Ended\r\n                    is_ended = true;\r\n                    emit AuctionEnded(next_proved_winner, next_proved_winner_bid);\r\n                    // Transfer ownership\r\n                    token.transferFrom(address(this), next_proved_winner, token_id);\r\n                    winner = next_proved_winner;\r\n                    return();\r\n                    \r\n                } \r\n            }\r\n        }\r\n\r\n        \r\n    }\r\n\r\n\r\n\r\n}",
  "sourcePath": "D:/diamondsPlatform/compile/contracts/ClosedAuction.sol",
  "compiler": {
    "name": "solc",
    "version": "0.5.16+commit.9c3226ce.Emscripten.clang"
  },
  "schemaVersion": "3.3.3",
  "updatedAt": "2021-11-20T02:13:29.916Z",
  "devdoc": {
    "methods": {}
  },
  "userdoc": {
    "methods": {}
  }
}