{
  "contractName": "InsertionSorter",
  "abi": [
    {
      "constant": true,
      "inputs": [
        {
          "internalType": "uint256[]",
          "name": "data",
          "type": "uint256[]"
        },
        {
          "internalType": "address[]",
          "name": "biddersAddress",
          "type": "address[]"
        }
      ],
      "name": "sort",
      "outputs": [
        {
          "internalType": "uint256[]",
          "name": "",
          "type": "uint256[]"
        },
        {
          "internalType": "address[]",
          "name": "",
          "type": "address[]"
        }
      ],
      "payable": false,
      "stateMutability": "pure",
      "type": "function"
    }
  ],
  "bytecode": "0x608060405234801561001057600080fd5b50610588806100206000396000f3fe608060405234801561001057600080fd5b506004361061002b5760003560e01c80634e9d19d314610030575b600080fd5b61017a6004803603604081101561004657600080fd5b810190808035906020019064010000000081111561006357600080fd5b82018360208201111561007557600080fd5b8035906020019184602083028401116401000000008311171561009757600080fd5b919080806020026020016040519081016040528093929190818152602001838360200280828437600081840152601f19601f820116905080830192505050505050509192919290803590602001906401000000008111156100f757600080fd5b82018360208201111561010957600080fd5b8035906020019184602083028401116401000000008311171561012b57600080fd5b919080806020026020016040519081016040528093929190818152602001838360200280828437600081840152601f19601f820116905080830192505050505050509192919290505050610219565b604051808060200180602001838103835285818151815260200191508051906020019060200280838360005b838110156101c15780820151818401526020810190506101a6565b50505050905001838103825284818151815260200191508051906020019060200280838360005b838110156102035780820151818401526020810190506101e8565b5050505090500194505050505060405180910390f35b6060806000845190506060816040519080825280602002602001820160405280156102535781602001602082028038833980820191505090505b5090506060826040519080825280602002602001820160405280156102875781602001602082028038833980820191505090505b50905060008090505b8381101561032b578781815181106102a457fe5b60200260200101518382815181106102b857fe5b6020026020010181815250508681815181106102d057fe5b60200260200101518282815181106102e457fe5b602002602001019073ffffffffffffffffffffffffffffffffffffffff16908173ffffffffffffffffffffffffffffffffffffffff16815250508080600101915050610290565b6000806000600193505b855184101561049f5785848151811061034a57fe5b6020026020010151925084848151811061036057fe5b602002602001015191508390505b60008111801561039357508286600183038151811061038957fe5b6020026020010151115b15610432578560018203815181106103a757fe5b60200260200101518682815181106103bb57fe5b6020026020010181815250508460018203815181106103d657fe5b60200260200101518582815181106103ea57fe5b602002602001019073ffffffffffffffffffffffffffffffffffffffff16908173ffffffffffffffffffffffffffffffffffffffff168152505080806001900391505061036e565b8286828151811061043f57fe5b6020026020010181815250508185828151811061045857fe5b602002602001019073ffffffffffffffffffffffffffffffffffffffff16908173ffffffffffffffffffffffffffffffffffffffff16815250508380600101945050610335565b600093505b8684101561053f578584815181106104b857fe5b60200260200101518b85815181106104cc57fe5b6020026020010181815250508484815181106104e457fe5b60200260200101518a85815181106104f857fe5b602002602001019073ffffffffffffffffffffffffffffffffffffffff16908173ffffffffffffffffffffffffffffffffffffffff168152505083806001019450506104a4565b8a8a9850985050505050505050925092905056fea265627a7a72315820e46f5670d5fb2f0c6122f1fdb58aabc51d0c3bbcff8cfd3ad034f434d65a0f6764736f6c63430005100032",
  "source": "pragma solidity 0.5.16;\r\n\r\ncontract  InsertionSorter {\r\n\r\n\r\n  function sort(uint[] memory data, address[] memory biddersAddress) public pure returns(uint[] memory, address[] memory) {\r\n\r\n    uint n = data.length;\r\n    uint[] memory arr = new uint[](n);\r\n    address[] memory sortedAddresses = new address[](n);\r\n    uint i;\r\n\r\n    for(i=0; i<n; i++) {\r\n      arr[i] = data[i];\r\n      sortedAddresses[i] = biddersAddress[i];\r\n    }\r\n\r\n    uint key;\r\n    address key2;\r\n    uint j;\r\n\r\n    for(i = 1; i < arr.length; i++ ) {\r\n      key = arr[i];\r\n      key2 = sortedAddresses[i];\r\n      for(j = i; j > 0 && arr[j-1] > key; j-- ) {\r\n        arr[j] = arr[j-1];\r\n        sortedAddresses[j] = sortedAddresses[j-1];\r\n      }\r\n\r\n      arr[j] = key;\r\n      sortedAddresses[j] = key2;\r\n    }\r\n\r\n    for(i=0; i<n; i++) {\r\n      data[i] = arr[i];\r\n      biddersAddress[i] = sortedAddresses[i];\r\n    }\r\n    return(data, biddersAddress);\r\n  }\r\n\r\n}",
  "sourcePath": "D:\\diamondsPlatform\\compile\\contracts\\InsertionSorter.sol",
  "compiler": {
    "name": "solc",
    "version": "0.5.16+commit.9c3226ce.Emscripten.clang"
  },
  "schemaVersion": "3.3.3",
  "updatedAt": "2021-11-20T02:14:17.306Z",
  "devdoc": {
    "methods": {}
  },
  "userdoc": {
    "methods": {}
  }
}